:100000000C942A000C9447000C9447000C94470071
:100010000C9447000C9447000C9447000C94470044
:100020000C9447000C9447000C9447000C94470034
:100030000C9447000C9447000C9447000C94470024
:100040000C9418040C9447000C9447000C9447003F
:100050000C94470011241FBECFE5D8E0DEBFCDBF12
:1000600011E0A0E6B0E0E4E5FEE002C005900D92EC
:10007000AC32B107D9F721E0ACE2B1E001C01D928A
:10008000A633B207E1F70E9449000C9428070C94AC
:10009000000000D000D00F92CDB7DEB7198288E8FB
:1000A00093E18A839B831C820E942F060E943F0358
:1000B0000E94C50261E081E00E94610288EE90E04A
:1000C0000E945301BE016C5F7F4FCE0101960E94DA
:1000D000AE008D8361E082E00E9461022D812111DA
:1000E0003AC08C81843648F480E20E9403018C81FE
:1000F0008A3018F480E20E9403012C8130E040E055
:1001000050E0BA01CA010E94700185EF90E00E94A0
:1001100053018C818E31B8F489EF90E00E94530135
:100120008FE79AE126E0815090402040E1F700C03F
:1001300000008FE79AE126E0815090402040E1F7EF
:1001400000C00000BFCF883218F484E091E0E6CF11
:100150008FE091E0E3CF8AE191E0E0CFEF92FF9270
:100160000F931F93CF93DF9300D0CDB7DEB78B01F2
:10017000009781F1672B71F1FC01E180F28041E091
:10018000E114F104E9F0BE016F5F7F4F80810E94AE
:100190005F03482F811114C029813A81D7010E9441
:1001A0003906A92F982F872FA69597958795A695FD
:1001B000979587956AE070E00E944806F801608391
:1001C000842F0F900F90DF91CF911F910F91FF908F
:1001D000EF90089542E0F4CF41E063E081E00E94B7
:1001E000AF048FEC97E00197F1F700C0000040E00A
:1001F00063E081E00E94AF048FEC97E00197F1F794
:1002000000C000000895CF93DF930F92CDB7DEB703
:10021000898341E061E081E00E94AF0440E062E058
:1002200081E00E94AF04698162956F7080E00E9456
:10023000DE050E94EC00698180E00E94DE050E94DC
:10024000EC008FEC97E00197F1F700C000000F90F1
:10025000DF91CF910895CF93DF930F92CDB7DEB7A3
:10026000898340E061E081E00E94AF0440E062E009
:1002700081E00E94AF04698162956F7080E00E9406
:10028000DE050E94EC00698180E00E94DE050E948C
:10029000EC008FEC97E00197F1F700C000000F90A1
:1002A000DF91CF910895CF93DF9300D00F92CDB718
:1002B000DEB789839A831B82E981FA818B81E80FFB
:1002C000F11D8081811106C00F900F900F90DF917A
:1002D000CF9108950E9403018B818F5F8B83ECCFB8
:1002E0002F923F924F925F926F927F928F929F9246
:1002F000AF92BF92CF92DF92EF92FF920F931F9334
:10030000CF93DF93CDB7DEB760970FB6F894DEBF1B
:100310000FBECDBF322E232E4A835B836C837D8339
:100320008E83492EA0E00E941C07D9F480E36096DA
:100330000FB6F894DEBF0FBECDBFDF91CF911F91F6
:100340000F91FF90EF90DF90CF90BF90AF909F9074
:100350008F907F906F905F904F903F902F900C9474
:10036000030181E08983512C612C712C4301188A8F
:100370001F869AE0A92EB12CC12CD12C76018601C2
:100380002981352DA301B40188899F850E945C06CF
:1003900028873F83942E852E762E672E582E99839C
:1003A000232D322D4A815B816C817D818E81942D3C
:1003B0000E94B406A884BF80C92CD82CE72CF62C48
:1003C000052D19810E9413072983532E3A014B01F1
:1003D000888B9F873F8228868A8189878B818A873D
:1003E0008C818B878D818C878E818D874E862AE0CC
:1003F000A22EB12CC12CD12C76018601232D322DB9
:1004000049855A856B857C85942D0E94B606322ECF
:10041000232E4A835B836C837D838E83492E2F81B9
:10042000388549855A856B857C858D859E85AAE0B2
:100430000E941C0708F09DCF2981352DA301B4012E
:1004400088899F85A1E00E941C07C9F460960FB6B9
:10045000F894DEBF0FBECDBFDF91CF911F910F91FA
:10046000FF90EF90DF90CF90BF90AF909F908F90D4
:100470007F906F905F904F903F902F9008958AE00B
:10048000A82EB12CC12CD12C760186012981352DC5
:10049000A301B40188899F850E94B40680E3820F7E
:1004A0000E9403012981352DA301B40188899F850C
:1004B0000E94B6062983532E3A014B01888B9F87F1
:1004C000BBCF9FEF980F923098F49FEF960F90312B
:1004D00078F4813059F48FE7860F0E942B018FEC5E
:1004E00097E00197F1F700C0000008958FEBF4CF7B
:1004F00080E8F3CFCF93DF9380E40E942B01C0EC20
:10050000D0E089910E94030180E0C83ED807C9F776
:10051000DF91CF910895CF93DF9380E40E942B0168
:10052000C0EAD0E089910E94030180E0C03CD80776
:10053000C9F7DF91CF910895CF93DF9380E40E94B4
:100540002B01C0E6D0E089910E94030180E0C03A0F
:10055000D807C9F7DF91CF910895CF93DF930F921A
:10056000CDB7DEB749830E94610289810F90DF9188
:10057000CF910C94030181E00E942B018FE19EE456
:100580000197F1F700C0000008952FE788E391E09C
:10059000215080409040E1F700C0000041E064E05D
:1005A00080E00E94700441E065E080E00E947004F9
:1005B00041E066E080E00E94700441E067E080E096
:1005C0000E94700441E061E081E00E94700441E01B
:1005D00062E081E00E94700441E063E081E00E94FB
:1005E000700463E080E00E94DE050E94EC008FE072
:1005F00097E20197F1F700C0000063E080E00E94FD
:10060000DE050E94EC008BE291E00197F1F700C05B
:10061000000063E080E00E94DE050E94EC008BE2B7
:1006200091E00197F1F700C0000062E080E00E94D5
:10063000DE050E94EC008FEC97E00197F1F700C017
:10064000000088E20E942B018FEC97E00197F1F700
:1006500000C000008CE00E942B018FEC97E0019716
:10066000F1F700C000000E94BB0286E00E942B014F
:100670008FEC97E00197F1F700C0000008953E9AD3
:100680003F983D9886B1887F86B986B1876086B9E4
:10069000379A33980895379A089537980895339A7A
:1006A000089533980895883040F496B1987F96B9AC
:1006B00096B1982B96B980E0089581E00895282F8F
:1006C000FB01309779F1883078F580912C01811108
:1006D0002DC091E090932C0197B1907E97B997B17E
:1006E000922B97B9369A60E070E0AB0134990DC057
:1006F000403593EC59076105710511F484E00FC092
:100700004F5F5F4F6F4F7F4FF1CF4035534C6105C7
:100710007105A1F3349A24B145B12083418310922D
:100720002C01089582E0089581E0089583E0089502
:10073000282F6115710509F141155105F1F0883037
:10074000F0F480912C0181111CC091E090932C0158
:10075000109231016093340170933501409332015E
:100760005093330197B1907E97B997B1922B97B977
:100770003398349A339A369A089582E0089581E046
:10078000089583E00895FC01892B09F44DC0208170
:1007900031812115310509F447C045815681411544
:1007A000510509F441C06281738161157105E1F160
:1007B00094819115D9F1A22FF90180818830B0F58B
:1007C00031968E2F8A1B8917C0F380912C018115D9
:1007D00011F083E00895E1E0E0932C01E093310112
:1007E000609334017093350120932F0130933001D1
:1007F00090932E01409332015093330110922D01BA
:1008000097B1907E97B997B120912D01E0912F017A
:10081000F0913001E20FF11D2081922B97B93398AE
:10082000349A339A369A089582E0089581E00895C3
:100830001F920F920FB60F9211242F933F934F9355
:100840005F936F937F938F939F93AF93BF93EF9338
:10085000FF93E0913401F0913501809131018111D4
:100860001DC084B125B180832183339810922C015F
:10087000E0913201F09133010995FF91EF91BF9121
:10088000AF919F918F917F916F915F914F913F9128
:100890002F910F900FBE0F901F90189580912D01F2
:1008A00024B145B1E80FF11DE80FF11D208341830C
:1008B0008F5F80932D0190912E018917B1F287B13E
:1008C000807E87B987B190912D01E0912F01F09141
:1008D0003001E90FF11D9081892B87B9369ACDCF70
:1008E0008430D8F56830C8F54130F1F421E030E0CB
:1008F000A90101C0440F6A95EAF7823069F083309C
:1009000079F0813029F08AB3842B8ABB81E0089585
:1009100087B3842B87BBFACF84B3842B84BBF6CFF9
:1009200081B3842B81BBF2CFC0F421E001C0220F40
:100930006A95EAF72095823051F0833059F0813082
:1009400019F08AB38223E1CF87B38223E3CF84B344
:100950008223E4CF81B38223E5CF80E00895843001
:10096000D8F56830C8F54130F1F421E030E0A90154
:1009700001C0440F6A95EAF7823069F0833079F05C
:10098000813029F08BB3842B8BBB81E0089588B331
:10099000842B88BBFACF85B3842B85BBF6CF82B37B
:1009A000842B82BBF2CFC0F421E001C0220F6A95F4
:1009B000EAF72095823051F0833059F0813019F0F8
:1009C0008BB38223E1CF88B38223E3CF85B3822325
:1009D000E4CF82B38223E5CF80E00895FA0184302A
:1009E000D8F46830C8F43097B9F0823089F0833099
:1009F00089F0813059F089B390E002C095958795D0
:100A00006A95E2F78170808381E0089586B3F4CF20
:100A100083B3F2CF80B3F0CF80E00895843000F547
:100A20006830F0F421E030E0A90101C0440F6A957C
:100A3000EAF7823069F0833079F0813029F08BB3A6
:100A400084278BBB81E0089588B3842788BBFACFC5
:100A500085B3842785BBF6CF82B3842782BBF2CFD0
:100A600080E00895843078F4823049F0833049F092
:100A7000813019F06ABB81E0089567BBFCCF64BB8D
:100A8000FACF61BBF8CF80E00895843078F48230EB
:100A900049F0833049F0813019F06BBB81E0089553
:100AA00068BBFCCF65BBFACF62BBF8CF80E008958E
:100AB000FB01843090F4309781F0823051F0833024
:100AC00051F0813021F089B3808381E0089586B3AD
:100AD000FBCF83B3F9CF80B3F7CF80E008958430A4
:100AE000B8F4823069F0833079F0813029F08BB32B
:100AF00080958BBB81E0089588B3809588BBFACF41
:100B000085B3809585BBF6CF82B3809582BBF2CF4B
:100B100080E00895843008F04FC0683008F04CC081
:100B200021E030E0F90101C0EE0F6A95EAF79E2F4F
:100B30009095823019F1833081F1813081F041301C
:100B400059F480B78B7F80BF8AB389238ABB8BB36C
:100B50008E2B8BBB81E008958BB38923FACF413074
:100B600051F480B78B7F80BF87B3892387BB88B35D
:100B70008E2B88BBEFCF88B38923FBCF413051F454
:100B800080B78B7F80BF84B3892384BB85B38E2BD2
:100B900085BBE0CF85B38923FBCF413051F480B7CB
:100BA0008B7F80BF81B3892381BB82B38E2B82BBB5
:100BB000D1CF82B38923FBCF80E00895843028F51C
:100BC0006295607F823099F08330C1F0813041F0CE
:100BD0008BB38F708BBB8BB3862B8BBB81E008955F
:100BE00088B38F7088BB88B3862B88BBF7CF85B35B
:100BF0008F7085BB85B3862B85BBF0CF82B38F709A
:100C000082BB82B3862B82BBE9CF80E0089584301B
:100C100020F56F70823099F08330C1F0813041F05F
:100C20008BB3807F8BBB8BB3862B8BBB81E008950E
:100C300088B3807F88BB88B3862B88BBF7CF85B30A
:100C4000807F85BB85B3862B85BBF0CF82B3807F49
:100C500082BB82B3862B82BBE9CF80E008951ABAAB
:100C60008FEF87BB14BA81BB1BBA18BA15BA12BA78
:100C70000895A29FB001B39FC001A39F700D811D75
:100C80001124911DB29F700D811D1124911D089595
:100C9000AA1BBB1B51E107C0AA1FBB1FA617B707A2
:100CA00010F0A61BB70B881F991F5A95A9F78095BE
:100CB0009095BC01CD010895DF93CF931F930F93BF
:100CC0009A9DF02D219FF00D8B9DF00D8A9DE02DBA
:100CD000F10D039FF00D029FE00DF11D4E9DE00D03
:100CE000F11D5E9DF00D4F9DF00D7F936F93BF92B0
:100CF000AF925F934F93D5010E9439068B01AC01EF
:100D0000D7010E943906EB01E80FF91FD6010E94B6
:100D1000AB062F913F91D6010E943906C60FD71F0F
:100D2000E81FF91FAF91BF910E94AB062F913F9131
:100D30000E943906C60FD71FE81FF91FD6010E946F
:100D40003906E60FF71F9801BE01CF010F911F91E1
:100D5000CF91DF9108950E943906460F571FC81F93
:100D6000D91F08F431960895689401C0E8948F92D1
:100D70009F92CF93DF930E94C206DF91CF919F9005
:100D80008F90089588249924F401E401B0E49F939E
:100D9000AA279A158B049C04ED05FE05CF05D00704
:100DA000A10798F4AD2FDC2FCF2FFE2FE92D982C23
:100DB000892E982F872F762F652F542F432F322F70
:100DC0002227B85031F7BF9127C01B2EBF91BB27F8
:100DD000220F331F441F551F661F771F881F991F3F
:100DE000881C991CEE1FFF1FCC1FDD1FAA1FBB1FF5
:100DF0008A149B04EC05FD05CE05DF05A007B107AD
:100E000048F08A189B08EC09FD09CE09DF09A00B00
:100E1000B10B21601A94E1F62EF49401AF01BE01EA
:100E2000CD01000C08952A0D3B1D4C1D5D1D6E1D4E
:100E30007F1D801F911F08950024A7FD00942A178D
:100E40003005400550056005700580059005089542
:040E5000F894FFCF44
:100E5400000A1F1F0E040000040E151F0E150400C7
:100E6400000A0000110E0000040E1504040404001E
:100E740004040404150E040004081F080400000000
:100E840004021F0204000000000103160C08000005
:100E9400001C12121E10100000001212120C00008E
:100EA400001C12121E10100000001010101E000072
:100EB40004000E11110E000400001212121E000490
:100EC400000E12121E10040000000C12120C00007E
:100ED40000000402021C000054656D7065726174A8
:100EE4007572653A00204320004E4F524D414C200C
:100EF400202020005741524E494E472020200044D4
:100F0400414E474552202020200053656E736F7276
:0C0F1400204572726F7220202020000027
:00000001FF
