:100000000C942A000C9447000C9447000C94470071
:100010000C9447000C9447000C9447000C94470044
:100020000C9447000C9447000C9447000C94470034
:100030000C9447000C9447000C9447000C94470024
:100040000C9447000C9447000C9447000C94470014
:100050000C94470011241FBECFE5D8E0DEBFCDBF12
:1000600011E0A0E6B0E0EEE0F3E102C005900D92F1
:10007000A632B107D9F721E0A6E2B1E001C01D9296
:10008000AD34B207E1F70E9457010C9485090C9436
:10009000000010924C0110922A0110922B01109234
:1000A000260110922701109228011092290108952B
:1000B000E0912A01E03270F4AE2FB0E0A55DBE4FB2
:1000C0008C93EF5FE0932A01F0E0E55DFE4F108234
:1000D00081E0089580E008954F925F926F927F9241
:1000E0008F929F92AF92BF92CF92DF92EF92FF9248
:1000F0000F931F93CF93DF93EB01F90128812230F7
:10010000B0F13081311599F131503083430F511DD9
:10011000FA0140812881EFEFE20FE88314E0E19FCC
:10012000F0011124E80FF91FE080F18002811381B2
:100130002250288334E0239F40011124880E991E09
:10014000F40160817181828193814F3241F4E11425
:10015000F1040105110509F062C081E009C04B32CC
:10016000C1F04D3209F441C04A3209F453C083E072
:10017000DF91CF911F910F91FF90EF90DF90CF9083
:10018000BF90AF909F908F907F906F905F904F90B7
:100190000895A92EAA0CAA08412E440C44089B01DC
:1001A000AC016A2D7A2D8A2D9A2D57016801E42C15
:1001B000F42C042D142D0E945809B22FA32F042FC4
:1001C000F52E50586F4F7F4F8F4F9F4F6130710505
:1001D00081059105C8F5F401B083A1830283F38200
:1001E00088818F5F888380E0C3CFA92EAA0CAA08DC
:1001F000412E440C44089B01AC016A2D7A2D8A2DB6
:100200009A2D57016801E42CF42C042D142D0E9422
:100210006109D3CF9701A8010E944708CECF492E8C
:10022000440C4408212F220F220B57016801E22EB3
:10023000F22E022F122F9B01AC01642D742D842D00
:10024000942D0E948308B9CF82E092CFCF93C091C2
:100250002A01C03108F4C0E1C0510E949C0561E050
:1002600081E00E94420580912A01C81710F0CF91C9
:100270000895EC2FF0E0E55DFE4F80810E94E403DD
:10028000CF5FF1CFCF93DF9300D0CDB7DEB78983B7
:100290009A830E949C0589819A810E94340482E09D
:1002A00080934C010F900F90DF91CF910895CDB7BF
:1002B000DEB7C255D1090FB6F894DEBF0FBECDBF71
:1002C0000E94B8070E94A6050E9428030E944900C8
:1002D0000E949C050E946403182F8F3FD9F38F332F
:1002E000A9F380914C018230A9F390ED910F9A30DF
:1002F00088F4813011F40E944900812F0E94580037
:10030000813019F40E942601E5CF84E091E00E943B
:100310004201E0CF96ED910F963008F04BC02BE2F2
:1003200001C026959A95EAF720FFD4CF8130A1F538
:1003300010922A0110922B0110924C01C0902601BC
:10034000D0902701E0902801F0902901F7FE0BC022
:100350008DE20E945800F094E094D094C094C11CA7
:10036000D11CE11CF11CB12CB601C7012AE030E020
:1003700040E050E00E94C207FE013196EB0DF11DF6
:100380006083B394C601D70169017A010A97A10578
:10039000B10550F7B110E1C0E0912A01E11509F46F
:1003A00099CFF0E0E65DFE4F808180538A3008F0FF
:1003B00091CFA3CF1D3309F08DCF81118BCF109139
:1003C0002A01111509F486CFE12FF0E0E65DFE4F1A
:1003D000808180538A3008F07DCF63961FAE63978B
:1003E00062961FAE6297F12CE1E0CE010196C82E15
:1003F000B92EAF2DB0E0A55DBE4F0C9180ED800F02
:100400008A3008F41CC1F110BAC00D3209F0B7C02F
:10041000E11509F4C1C0113009F4BEC080912C016E
:1004200080538A3008F0B8C0DE2E8E2F90E0DC01B9
:10043000A55DBE4F7D0120E030E0A90107E00D0D74
:10044000D701FC91F053FA30E0F42C3CBCEC3B07B4
:100450004B07BCE05B0728F009F0EEC00F1708F46B
:10046000EBC09FEFE91AF90AAAE0B0E00E94E407A6
:100470009B01AC012F0F311D411D511DEF5F1E135C
:10048000DFCFB1E0DB1273C021153105410580E8F3
:10049000580709F46FC0C901DA0144275527BA018A
:1004A000481B590B6A0B7B0B63968FAD63978031AA
:1004B00008F072C094E0899FD0011124AC0FBD1FD9
:1004C00011964D935D936D937D938F5F63968FAF80
:1004D0006397FE2EE0E0F11608F48BCFE13009F4CB
:1004E0005BC062968FAD629781118EC063968FADAF
:1004F0006397813009F050C0D980EA80FB801C816D
:10050000D0922601E0922701F09228011093290150
:100510000E94260161E082E00E9442058DE30E9474
:10052000E4038D2C9E2CAF2CB12EB7FE0BC08DE2B8
:100530000E94E403B094A09490948094811C911C38
:10054000A11CB11C9401A50160E070E0CB010E94E8
:10055000510481E080934C01BDCEBA94FE013196E6
:10056000EB0DF11D8081805D0E94580013CFBA0110
:10057000A9019ACF40E050E060E070E895CF96ED99
:10058000900F963048F48BE201C086959A95EAF771
:1005900080FF02C0E13091F488EF90E0B8CE9E0178
:1005A0002F5A3F4FAE014F5B5F4FBE016E5A7F4FD8
:1005B0008C2D9B2D0E946C00811136C062968FADF0
:1005C00062978115A1F0FE01EF5BFF4FE80FF11D6F
:1005D00092919A3221F39F3211F30A3231F09B3219
:1005E00011F09D3211F40F32D1F68031A8F6FE01E0
:1005F000EF5BFF4FE80FF11D00838F5F62968FAFB7
:100600006297F394E1E067CF9E012F5A3F4FAE010E
:100610004F5B5F4FBE016E5A7F4FCE0101960E9425
:100620006C00811509F45DCF813019F489E191E006
:100630006ECE823009F0B0CF8EE091E068CEE11549
:1006400009F4AACFF11608F0A7CFD12CEF2DEDCEEB
:1006500041E060E083E00E94130741E061E083E055
:100660000E94130741E062E083E00E94130741E02B
:1006700063E083E00E94130741E064E083E00E94AE
:10068000F90541E065E083E00E94F90541E066E09C
:1006900083E00E94F90541E067E083E00E94F905EC
:1006A00041E064E083E00E94380641E065E083E0D9
:1006B0000E94380641E066E083E00E94380641E08F
:1006C00067E083E00C943806CF92DF92EF92FF92BE
:1006D0000F931F93CF93DF9300D000D0CDB7DEB739
:1006E000E12CF12C0FEF6E012FEFC21AD20A84E039
:1006F0008E0D8A8340E0682F83E00E94380610E068
:10070000A601612F83E00E9477068981CB82DC827B
:1007100081113EC09FE728E381E091502040804056
:10072000E1F700C00000A601612F83E00E94770678
:100730008981811109C094E0199FF0011124E05AC8
:10074000FF4FEE0DFF1D00814B815C81612F83E027
:100750000E94770689818115B9F341E06A8183E0BF
:100760000E9438062FEFE21AF20A84E0E816F1043C
:1007700009F0BDCF802F0F900F900F900F90DF9159
:10078000CF911F910F91FF90EF90DF90CF90089540
:100790001F5F143009F0B4CFE0CF41E063E081E0A7
:1007A0000E9438068FEC97E00197F1F700C0000037
:1007B00040E063E081E00E9438068FEC97E001970B
:1007C000F1F700C000000895CF93DF930F92CDB7EB
:1007D000DEB7898341E061E081E00E94380640E0B5
:1007E00062E081E00E943806698162956F7080E066
:1007F0000E9467070E94CD03698180E00E9467071D
:100800000E94CD038FEC97E00197F1F700C0000044
:100810000F90DF91CF910895CF93DF930F92CDB7D3
:10082000DEB7898340E061E081E00E94380640E065
:1008300062E081E00E943806698162956F7080E015
:100840000E9467070E94CD03698180E00E946707CC
:100850000E94CD038FEC97E00197F1F700C00000F4
:100860000F90DF91CF910895CF93DF9300D00F9237
:10087000CDB7DEB789839A831B82E981FA818B81A8
:10088000E80FF11D8081811106C00F900F900F902D
:10089000DF91CF9108950E94E4038B818F5F8B835A
:1008A000ECCF2F923F924F925F926F927F928F92F6
:1008B0009F92AF92BF92CF92DF92EF92FF920F93EF
:1008C0001F93CF93DF93CDB7DEB760970FB6F89441
:1008D000DEBF0FBECDBF322E232E4A835B836C83D7
:1008E0007D838E83492EA0E00E946A09D9F480E3BB
:1008F00060960FB6F894DEBF0FBECDBFDF91CF91EB
:100900001F910F91FF90EF90DF90CF90BF90AF902D
:100910009F908F907F906F905F904F903F902F901F
:100920000C94E40381E08983512C612C712C4301E8
:10093000188A1F869AE0A92EB12CC12CD12C7601E1
:1009400086012981352DA301B40188899F850E94E4
:10095000EF0728873F83942E852E762E672E582EFC
:100960009983232D322D4A815B816C817D818E811B
:10097000942D0E94B208A884BF80C92CD82CE72CE3
:10098000F62C052D19810E9458092983532E3A010E
:100990004B01888B9F873F8228868A8189878B813C
:1009A0008A878C818B878D818C878E818D874E86FF
:1009B0002AE0A22EB12CC12CD12C76018601232D48
:1009C000322D49855A856B857C85942D0E94B4080B
:1009D000322E232E4A835B836C837D838E83492E44
:1009E0002F81388549855A856B857C858D859E85C7
:1009F000AAE00E946A0908F09DCF2981352DA30144
:100A0000B40188899F85A1E00E946A09C9F46096B3
:100A10000FB6F894DEBF0FBECDBFDF91CF911F910F
:100A20000F91FF90EF90DF90CF90BF90AF909F908D
:100A30008F907F906F905F904F903F902F90089590
:100A40008AE0A82EB12CC12CD12C760186012981F7
:100A5000352DA301B40188899F850E94B20880E3E7
:100A6000820F0E94E4032981352DA301B4018889F6
:100A70009F850E94B4082983532E3A014B01888B2D
:100A80009F87BBCF9FEF980F923098F49FEF960F00
:100A9000903178F4813059F48FE7860F0E940C046E
:100AA0008FEC97E00197F1F700C0000008958FEBFD
:100AB000F4CF80E8F3CFCF93DF9380E40E940C045F
:100AC000C0EDD0E089910E94E40380E0C83FD807E0
:100AD000C9F7DF91CF910895CF93DF9380E40E940F
:100AE0000C04C0EBD0E089910E94E40380E0C03D9B
:100AF000D807C9F7DF91CF910895CF93DF9380E4B2
:100B00000E940C04C0E7D0E089910E94E40380E0D9
:100B1000C03BD807C9F7DF91CF910895CF93DF93FA
:100B20000F92CDB7DEB749830E94420589810F90AD
:100B3000DF91CF910C94E40381E00E940C048FE1DB
:100B40009EE40197F1F700C0000008952FE788E3C5
:100B500091E0215080409040E1F700C0000041E06A
:100B600064E080E00E94F90541E065E080E00E94D9
:100B7000F90541E066E080E00E94F90541E067E0A8
:100B800080E00E94F90541E061E081E00E94F90502
:100B900041E062E081E00E94F90541E063E081E02C
:100BA0000E94F90582E00E940C048FE59AEE0197FD
:100BB000F1F700C0000088E20E940C048FEC97E07F
:100BC0000197F1F700C000008CE00E940C048FEC4C
:100BD00097E00197F1F700C000000E949C0586E0B5
:100BE0000E940C048FEC97E00197F1F700C0000021
:100BF00008958430D8F56830C8F54130F1F421E02B
:100C000030E0A90101C0440F6A95EAF7823069F02B
:100C1000833079F0813029F08AB3842B8ABB81E05C
:100C2000089587B3842B87BBFACF84B3842B84BB0E
:100C3000F6CF81B3842B81BBF2CFC0F421E001C099
:100C4000220F6A95EAF72095823051F0833059F0EF
:100C5000813019F08AB38223E1CF87B38223E3CFB7
:100C600084B38223E4CF81B38223E5CF80E008956B
:100C70008430D8F56830C8F54130F1F421E030E037
:100C8000A90101C0440F6A95EAF7823069F0833008
:100C900079F0813029F08BB3842B8BBB81E00895F0
:100CA00088B3842B88BBFACF85B3842B85BBF6CF62
:100CB00082B3842B82BBF2CFC0F421E001C0220FAB
:100CC0006A95EAF72095823051F0833059F08130EF
:100CD00019F08BB38223E1CF88B38223E3CF85B3AE
:100CE0008223E4CF82B38223E5CF80E00895FA0126
:100CF0008430D8F46830C8F43097B9F0823089F085
:100D0000833089F0813059F089B390E002C0959525
:100D100087956A95E2F78170808381E0089586B3B4
:100D2000F4CF83B3F2CF80B3F0CF80E00895843066
:100D300000F56830F0F421E030E0A90101C0440F73
:100D40006A95EAF7823069F0833079F0813029F0D2
:100D50008BB384278BBB81E0089588B3842788BB3D
:100D6000FACF85B3842785BBF6CF82B3842782BBB5
:100D7000F2CF80E00895843078F4823049F08330F7
:100D800049F0813019F06ABB81E0089567BBFCCF60
:100D900064BBFACF61BBF8CF80E00895843078F46B
:100DA000823049F0833049F0813019F06BBB81E02B
:100DB000089568BBFCCF65BBFACF62BBF8CF80E07B
:100DC0000895FB01843090F4309781F0823051F027
:100DD000833051F0813021F089B3808381E0089520
:100DE00086B3FBCF83B3F9CF80B3F7CF80E008950C
:100DF0008430B8F4823069F0833079F0813029F0A2
:100E00008BB380958BBB81E0089588B3809588BBB8
:100E1000FACF85B3809585BBF6CF82B3809582BB30
:100E2000F2CF80E00895843008F04FC0683008F0B9
:100E30004CC021E030E0F90101C0EE0F6A95EAF7FD
:100E40009E2F9095823019F1833081F1813081F0AD
:100E5000413059F480B78B7F80BF8AB389238ABB26
:100E60008BB38E2B8BBB81E008958BB38923FACF94
:100E7000413051F480B78B7F80BF87B3892387BB14
:100E800088B38E2B88BBEFCF88B38923FBCF41304B
:100E900051F480B78B7F80BF84B3892384BB85B333
:100EA0008E2B85BBE0CF85B38923FBCF413051F436
:100EB00080B78B7F80BF81B3892381BB82B38E2BA8
:100EC00082BBD1CF82B38923FBCF80E008958430E9
:100ED00028F56295607F823099F08330C1F08130CF
:100EE00041F08BB38F708BBB8BB3862B8BBB81E0B8
:100EF000089588B38F7088BB88B3862B88BBF7CFE3
:100F000085B38F7085BB85B3862B85BBF0CF82B34D
:100F10008F7082BB82B3862B82BBE9CF80E00895BD
:100F2000843020F56F70823099F08330C1F08130C9
:100F300041F08BB3807F8BBB8BB3862B8BBB81E067
:100F4000089588B3807F88BB88B3862B88BBF7CF92
:100F500085B3807F85BB85B3862B85BBF0CF82B3FD
:100F6000807F82BB82B3862B82BBE9CF80E008956D
:100F70001ABA8FEF87BB14BA81BB1BBA18BA15BA5D
:100F800012BA0895A1E21A2EAA1BBB1BFD010DC0C7
:100F9000AA1FBB1FEE1FFF1FA217B307E407F50729
:100FA00020F0A21BB30BE40BF50B661F771F881F05
:100FB000991F1A9469F760957095809590959B019B
:100FC000AC01BD01CF0108950E947609A59F900D47
:100FD000B49F900DA49F800D911D11240895DF935F
:100FE000CF931F930F939A9DF02D219FF00D8B9D12
:100FF000F00D8A9DE02DF10D039FF00D029FE00D95
:10100000F11D4E9DE00DF11D5E9DF00D4F9DF00D0B
:101010007F936F93BF92AF925F934F93D5010E94DE
:1010200076098B01AC01D7010E947609EB01E80F2C
:10103000F91FD6010E943E082F913F91D6010E94D0
:101040007609C60FD71FE81FF91FAF91BF910E9405
:101050003E082F913F910E947609C60FD71FE81FC7
:10106000F91FD6010E947609E60FF71F9801BE010D
:10107000CF010F911F91CF91DF9108950E947609C2
:10108000460F571FC81FD91F08F43196089597FBC4
:1010900057FF0C9457089F938F930E9457086E1B1D
:1010A0007F0BAF91BF918A0B9B0B0895E894DF9360
:1010B000CF93FC01DB010E9476097F936F93E901D6
:1010C0009A01AC01BF93AF933F932F93DF010E942E
:1010D000760926F46C1B7D0B820B930B9E01EB01B2
:1010E000FC010E943E08AF91BF912F913F910E9459
:1010F0003E08BE01CF01F9012F913F91CF91DF91C1
:101100000895689401C0E894F92FF12B12F00C9423
:10111000B508A0E0B0E0EFE8F8E00C942709092E4C
:10112000059422F40E941109112392F4F0E80F268D
:10113000FFEFE094F09400951095B094C094D09493
:10114000A194BF0ACF0ADF0AEF0AFF0A0F0B1F0B99
:101150000E94C00807FC0E941109CDB7DEB7ECE081
:101160000C944309689401C0E8948F929F92CF93A6
:10117000DF930E94C008DF91CF919F908F900895D8
:1011800088249924F401E401B0E49F93AA279A15D6
:101190008B049C04ED05FE05CF05D007A10798F44C
:1011A000AD2FDC2FCF2FFE2FE92D982C892E982FD5
:1011B000872F762F652F542F432F322F2227B85099
:1011C00031F7BF9127C01B2EBF91BB27220F331FC2
:1011D000441F551F661F771F881F991F881C991C65
:1011E000EE1FFF1FCC1FDD1FAA1FBB1F8A149B040D
:1011F000EC05FD05CE05DF05A007B10748F08A180C
:101200009B08EC09FD09CE09DF09A00BB10B216099
:101210001A94E1F62EF49401AF01BE01CD01000C49
:10122000089560957095809590953095409550956E
:1012300021953F4F4F4F5F4F6F4F7F4F8F4F9F4FC6
:1012400008952F923F924F925F926F927F928F926A
:101250009F92AF92BF92CF92DF92EF92FF920F9345
:101260001F93CF93DF93CDB7DEB7CA1BDB0B0FB64F
:10127000F894DEBF0FBECDBF09942A88398848880C
:101280005F846E847D848C849B84AA84B984C884A2
:10129000DF80EE80FD800C811B81AA81B981CE0F99
:1012A000D11D0FB6F894DEBF0FBECDBFED0108957E
:1012B0002A0D3B1D4C1D5D1D6E1D7F1D801F911F46
:1012C00008952A193B094C095D096E097F09800BB5
:1012D000910B08950024A7FD00942A1730054005BE
:1012E000500560057005800590050895A29FB00126
:1012F000B39FC001A39F700D811D1124911DB29F4A
:0E130000700D811D1124911D0895F894FFCFEA
:10130E003738392F3435362A3132332D3F303D2B95
:10131E00000A1F1F0E040000040E151F0E150400F8
:10132E00000A0000110E0000040E1504040404004F
:10133E0004040404150E040004081F080400000031
:10134E0004021F0204000000000103160C08000036
:10135E00001C12121E10100000001212120C0000BF
:10136E00001C12121E10100000001010101E0000A3
:10137E0004000E11110E000400001212121E0004C1
:10138E00000E12121E10040000000C12120C0000AF
:10139E0000000402021C0000494E505554204552D4
:1013AE00524F5200455850522046554C4C004D411C
:1013BE005448204552524F5200444956204259201B
:0613CE005A45524F0000D9
:00000001FF
