:100000000C942A000C9447000C9447000C94470071
:100010000C9447000C9447000C9447000C94470044
:100020000C9447000C9447000C9447000C94470034
:100030000C9447000C9447000C9447000C94470024
:100040000C9447000C9447000C9447000C94470014
:100050000C94470011241FBECFE5D8E0DEBFCDBF12
:1000600011E0A0E6B0E0EAE7FEE002C005900D92E4
:10007000A237B107D9F721E0A2E7B1E001C01D9294
:10008000A937B207E1F70E945A050C943B070C947C
:10009000000041E060E083E00E94AF0441E061E0E5
:1000A00083E00E94AF0441E062E083E00E94AF047D
:1000B00041E063E083E00E94AF0441E064E083E05C
:1000C0000E94820341E065E083E00E94820341E0F8
:1000D00066E083E00E94820341E067E083E00E94E3
:1000E000820341E064E083E00E94C30341E065E0F5
:1000F00083E00E94C30341E066E083E00E94C30303
:1001000041E067E083E00C94C303EF92FF920F930A
:100110001F93CF93DF9300D0CDB7DEB7E12CF12C46
:100120002FEF2A8304E00E0D40E0602F83E00E9451
:10013000C30310E0AE014F5F5F4F612F83E00E9469
:10014000040489818115C9F01F5F143099F741E0DB
:10015000602F83E00E94C3039FEFE91AF90A24E0AD
:10016000E216F104F9F68A810F900F90DF91CF919A
:100170001F910F91FF90EF9008958FE798E321E092
:10018000815090402040E1F700C00000AE014F5F79
:100190005F4F612F83E00E940404898181110CC0AC
:1001A000E12FF0E0EE0FFF1FEE0FFF1FE05AFF4FB1
:1001B000EE0DFF1D80818A83AE014F5F5F4F612F7F
:1001C00083E00E94040489818115B1F3C0CFCF93ED
:1001D000DF930F92CDB7DEB7898341E061E081E024
:1001E0000E94C30340E062E081E00E94C303698192
:1001F00062956F7080E00E94030541E063E081E05A
:100200000E94C3038FEC97E00197F1F700C0000054
:1002100040E063E081E00E94C3038FEC97E0019728
:10022000F1F700C00000698180E00E94030541E011
:1002300063E081E00E94C3038FEC97E00197F1F740
:1002400000C0000040E063E081E00E94C3038FEC47
:1002500097E00197F1F700C000008FEC97E001975D
:10026000F1F700C000000F90DF91CF910895CF9378
:10027000DF930F92CDB7DEB7898340E061E081E084
:100280000E94C30340E062E081E00E94C3036981F1
:1002900062956F7080E00E94030541E063E081E0B9
:1002A0000E94C3038FEC97E00197F1F700C00000B4
:1002B00040E063E081E00E94C3038FEC97E0019788
:1002C000F1F700C00000698180E00E94030541E071
:1002D00063E081E00E94C3038FEC97E00197F1F7A0
:1002E00000C0000040E063E081E00E94C3038FECA7
:1002F00097E00197F1F700C000008FEC97E00197BD
:10030000F1F700C000000F90DF91CF9108952FE723
:1003100088E391E0215080409040E1F700C0000068
:1003200041E064E080E00E94820341E065E080E01B
:100330000E94820341E066E080E00E94820341E087
:1003400067E080E00E94820341E061E081E00E947A
:10035000820341E062E081E00E94820341E063E0C9
:1003600081E00E94820382E00E9437018FE59AEECD
:100370000197F1F700C0000088E20E9437018FEC7E
:1003800097E00197F1F700C000008CE00E94370170
:100390008FEC97E00197F1F700C0000081E00E9428
:1003A00037018FE19EE40197F1F700C0000086E07D
:1003B0000E9437018FEC97E00197F1F700C0000031
:1003C00008950F931F93CF938C01FC0180818115B9
:1003D00051F0C0E00E94E700CF5FF801EC0FF11D83
:1003E00080818111F7CFCF911F910F9108952F92A6
:1003F0003F924F925F926F927F928F929F92AF92B5
:10040000BF92CF92DF92EF92FF920F931F93CF9301
:10041000DF93CDB7DEB760970FB6F894DEBF0FBE9F
:10042000CDBF4F835887782EA0E00E942F0709F494
:10043000D2C081E089831A82412C512C1B821C82FC
:100440001D821E82872D762E9F802F87672E88849F
:10045000388B292E382E29813A81A2016B817C812B
:100460008D819E8102E00E940D07A980BA80620101
:10047000EB80FC800D811E810E94260701E00E9416
:100480000D0729833A834B835C836D837E83582ECB
:10049000492E9AE0A92EB12CC12CD12C76018601CF
:1004A0002F853889492D582D672D762D832D922D36
:1004B0000E94AE06A980BA80CB80DC80ED80FE80F1
:1004C000052D142D0E94260729833A832A016B8368
:1004D0007C838D839E838F858F8388898887998687
:1004E0008A867B866C863D862E862AE0A22EB12CDB
:1004F000C12CD12C760186012F81382F492D582D02
:10050000672D762D832D922D0E94B0062F87388B74
:10051000942E852E762E672E382E292E2F81388503
:1005200049855A856B857C858D859E85AAE00E94CC
:100530002F0708F090CF29813A81A2016B817C813D
:100540008D819E81A1E00E942F0761F1962E872E5A
:10055000782E692E8AE0A82EB12CC12CD12C7601E0
:10056000860129813A81A201692D782D872D962D4A
:100570000E94AE0680E3820F0E94E70029813A8143
:10058000A201692D782D872D962D0E94B006298312
:100590003A832A01962E872E782E692EA1E00E949A
:1005A0002F07C1F660960FB6F894DEBF0FBECDBF21
:1005B000DF91CF911F910F91FF90EF90DF90CF903F
:1005C000BF90AF909F908F907F906F905F904F9073
:1005D0003F902F90089580E360960FB6F894DEBFA9
:1005E0000FBECDBFDF91CF911F910F91FF90EF9084
:1005F000DF90CF90BF90AF909F908F907F906F9043
:100600005F904F903F902F900C94E7009FEF980FD2
:10061000923050F080E80E9437018FEC97E001970C
:10062000F1F700C0000008959FEF960F903190F70A
:10063000813019F08FEB860FEECF8FE7860FEBCF6F
:10064000CF93DF9380E40E943701C0EDD0E0899121
:100650000E94E70080E0C83FD807C9F7DF91CF913B
:100660000895CF93DF9380E40E943701C0EBD0E080
:1006700089910E94E70080E0C03DD807C9F7DF916B
:10068000CF910895CF93DF9380E40E943701C0E7B4
:10069000D0E089910E94E70080E0C03BD807C9F70D
:1006A000DF91CF910895CF93DF930F92CDB7DEB74F
:1006B00049839FEF980F923078F080E80E943701CD
:1006C0008FEC97E00197F1F700C0000089810F904F
:1006D000DF91CF910C94E7009FEF960F903168F770
:1006E000813019F08FEB860FE9CF8FE7860FE6CFC9
:1006F00081E00E9437018FE19EE40197F1F700C08D
:10070000000008958430A8F4683098F4413099F0DE
:1007100080F421E001C0220F6A95EAF7209582302B
:1007200051F18330E1F0813051F18AB382238ABBE9
:1007300010C080E0089521E001C0220F6A95EAF719
:10074000823089F0833039F0813089F08AB3822B8E
:100750008ABB81E0089581B3822B81BBFACF81B33C
:10076000822381BBF6CF84B3822B84BBF2CF87B3C5
:10077000822B87BBEECF84B3822384BBEACF87B3BF
:10078000822387BBE6CF8430A8F4683098F44130E8
:1007900099F080F421E001C0220F6A95EAF72095D4
:1007A000823051F18330E1F0813051F18BB38223FB
:1007B0008BBB10C080E0089521E001C0220F6A9534
:1007C000EAF7823089F0833039F0813089F08BB3D9
:1007D000822B8BBB81E0089582B3822B82BBFACF40
:1007E00082B3822382BBF6CF85B3822B85BBF2CF47
:1007F00088B3822B88BBEECF85B3822385BBEACF3B
:1008000088B3822388BBE6CF8430B8F46830A8F47C
:100810004115510591F08230B1F0833091F0813073
:1008200071F486B390E002C0959587956A95E2F7DA
:100830008170FA01808381E0089580E0089589B392
:10084000F1CF80B3EFCF83B3EDCF843090F4683035
:1008500080F421E001C0220F6A95EAF7823059F056
:10086000833089F0813059F08BB382278BBB81E0D4
:10087000089580E0089585B3822785BBF8CF88B3BB
:10088000822788BBF4CF82B3822782BBF0CF84302B
:1008900048F4823061F0833069F0813029F467BB1D
:1008A00081E0089580E008956ABB81E0089564BB0B
:1008B00081E0089561BB81E00895843048F482307E
:1008C00061F0833069F0813029F468BB81E00895DC
:1008D00080E008956BBB81E0089565BB81E00895D9
:1008E00062BB81E00895843070F46115710559F0A0
:1008F000823079F0833049F0813079F089B3FB019F
:10090000808381E0089580E0089580B3FB018083B7
:10091000F8CF83B3FB018083F4CF86B3FB018083E0
:10092000F0CF843058F4823081F0833099F08130F8
:1009300039F488B3809588BB81E0089580E00895FC
:100940008BB380958BBB81E0089585B3809585BB83
:1009500081E0089582B3809582BB81E00895843060
:10096000A8F4683098F421E001C0220F6A95EAF7F4
:10097000922F9095823061F08330B1F0813071F028
:10098000413019F18BB389238BBB13C080E00895EC
:10099000413089F085B3892385BB0BC0413049F1D3
:1009A00088B3892388BB05C04130C9F082B389234D
:1009B00082BB81E0089580B78B7F80BF84B3892399
:1009C00084BB85B3822B85BBF4CF80B78B7F80BF80
:1009D0008AB389238ABB8BB3822B8BBBEACF80B7C8
:1009E0008B7F80BF81B3892381BB82B3822B82BB83
:1009F000E0CF80B78B7F80BF87B3892387BB88B365
:100A0000822B88BBD6CF843080F46295607F8230A1
:100A1000B1F08330E1F0813051F488B38F7088BB3E
:100A200088B3862B88BB81E0089580E008958BB35E
:100A30008F708BBB8BB3862B8BBB81E0089585B306
:100A40008F7085BB85B3862B85BB81E0089582B30B
:100A50008F7082BB82B3862B82BB81E00895843085
:100A600078F46F708230B1F08330E1F0813051F46E
:100A700088B3807F88BB88B3862B88BB81E00895CC
:100A800080E008958BB3807F8BBB8BB3862B8BBBB1
:100A900081E0089585B3807F85BB85B3862B85BBB8
:100AA00081E0089582B3807F82BB82B3862B82BBB4
:100AB00081E008950E9487010E94490041E060E0C2
:100AC00081E00E94820341E060E082E00E948203B4
:100AD00041E061E082E00E94820340E060E081E06A
:100AE0000E94C30340E060E082E00E94C30340E054
:100AF00061E082E00E94C3031092730110927501BD
:100B00001092760110927701109278011092740180
:100B100010927201D3E00E94780361E081E00E94AC
:100B2000060388EF90E00E94E10161E082E00E940C
:100B3000060386E091E00E94E1018091720181113B
:100B40008BC00E94850090ED980F9A30B0F790917D
:100B50007401943008F457C0943079F7809175018E
:100B6000823309F0B2C080917601803309F0ADC0C4
:100B700080917701803309F0A8C080917801843397
:100B800009F0A3C081E0809372010E94780361E0C4
:100B900081E00E94060381E291E00E94E10161E0B0
:100BA00082E00E94060380E391E00E94E10141E0BF
:100BB00060E081E00E94C30340E061E082E00E94C7
:100BC000C30340E060E082E00E94C3032FEF81E1B5
:100BD0009AE7215080409040E1F700C0000040E0DB
:100BE00060E081E00E94C3031092730110927501CE
:100BF0001092760110927701109278011092740190
:100C00001092720188CFE92FF0E0EB58FE4F8083FD
:100C10009F5F909374010E94780361E081E00E94DD
:100C2000060381E191E00E94E10161E082E00E941F
:100C300006038BE191E00E94E1018091740181152E
:100C400009F47BCFC0E08AE20E94E700CF5F909179
:100C50007401C917C0F380CF8230D1F108F495CF69
:100C6000833071F60E94780361E081E00E94060300
:100C700084E591E00E94E10161E082E00E940603C8
:100C800083E691E00E94E10140E060E081E00E94A3
:100C9000C30341E061E082E00E94C30341E060E001
:100CA00082E00E94C3032FEF83E294EF2150804043
:100CB0009040E1F700C0000040E061E082E00E9467
:100CC000C30340E060E082E08DCF82E08093720158
:100CD0000E94780361E081E00E94060389E391E0CD
:100CE0000E94E10161E082E00E94060387E491E056
:100CF0000E94E101809173018F5F8093730140E056
:100D000060E081E00E94C30341E061E082E00E9474
:100D1000C30340E060E082E00E94C3032FEF89E656
:100D200098E1215080409040E1F700C0000040E091
:100D300061E082E00E94C303109275011092760177
:100D400010927701109278011092740180917301D2
:100D5000833008F455CFD093720184CF689401C0DA
:100D6000E8948F929F92CF93DF930E94BC06DF910D
:100D7000CF919F908F90089588249924F401E401E5
:100D8000B0E49F93AA279A158B049C04ED05FE05F9
:100D9000CF05D007A10798F4AD2FDC2FCF2FFE2F62
:100DA000E92D982C892E982F872F762F652F542F79
:100DB000432F322F2227B85031F7BF9127C01B2E67
:100DC000BF91BB27220F331F441F551F661F771F7C
:100DD000881F991F881C991CEE1FFF1FCC1FDD1F49
:100DE000AA1FBB1F8A149B04EC05FD05CE05DF0579
:100DF000A007B10748F08A189B08EC09FD09CE0945
:100E0000DF09A00BB10B21601A94E1F62EF49401D6
:100E1000AF01BE01CD01000C0895002E083090F006
:100E2000982F872F762F652F542F432F322F22276D
:100E30000850F4CF220F331F441F551F661F771F22
:100E4000881F991F0A95B2F7002D08952A0D3B1DA2
:100E50004C1D5D1D6E1D7F1D801F911F0895002478
:100E6000A7FD00942A173005400550056005700560
:0A0E7000800590050895F894FFCF67
:100E7A003738392F3435362A3132332D3F303D2B2E
:100E8A00000A1F1F0E040000040E151F0E15040091
:100E9A00000A0000110E0000040E150404040400E8
:100EAA0004040404150E040004081F0804000000CA
:100EBA0004021F0204000000000103160C080000CF
:100ECA00001C12121E10100000001212120C000058
:100EDA00001C12121E10100000001010101E00003C
:100EEA0004000E11110E000400001212121E00045A
:100EFA00000E12121E10040000000C12120C000048
:100F0A0000000402021C000053454355524520418B
:100F1A00434345535300456E7465722050494E3A17
:100F2A0000454E5445522050494E0050494E3A20F1
:100F3A0000414343455353204752414E54454400D0
:100F4A0057454C434F4D4521004143434553532098
:100F5A0044454E4945440054525920414741494E5F
:100F6A002E2E2E00212120534543555249545920F3
:100F7A0021210053595354454D204C4F434B45446E
:020F8A00000065
:00000001FF
